{
  "contractName": "TouristRegistry",
  "abi": [
    {
      "inputs": [],
      "stateMutability": "nonpayable",
      "type": "constructor"
    },
    {
      "anonymous": false,
      "inputs": [
        {
          "indexed": false,
          "internalType": "string",
          "name": "uniqueId",
          "type": "string"
        },
        {
          "indexed": false,
          "internalType": "string",
          "name": "documentType",
          "type": "string"
        },
        {
          "indexed": false,
          "internalType": "string",
          "name": "ipfsHash",
          "type": "string"
        }
      ],
      "name": "DocumentUploaded",
      "type": "event"
    },
    {
      "anonymous": false,
      "inputs": [
        {
          "indexed": false,
          "internalType": "string",
          "name": "uniqueId",
          "type": "string"
        },
        {
          "indexed": false,
          "internalType": "string",
          "name": "qrCodeHash",
          "type": "string"
        }
      ],
      "name": "QRCodeGenerated",
      "type": "event"
    },
    {
      "anonymous": false,
      "inputs": [
        {
          "indexed": false,
          "internalType": "string",
          "name": "uniqueId",
          "type": "string"
        },
        {
          "indexed": false,
          "internalType": "uint256",
          "name": "timestamp",
          "type": "uint256"
        }
      ],
      "name": "TouristExpired",
      "type": "event"
    },
    {
      "anonymous": false,
      "inputs": [
        {
          "indexed": false,
          "internalType": "string",
          "name": "uniqueId",
          "type": "string"
        },
        {
          "indexed": true,
          "internalType": "address",
          "name": "touristAddress",
          "type": "address"
        },
        {
          "indexed": false,
          "internalType": "uint256",
          "name": "timestamp",
          "type": "uint256"
        }
      ],
      "name": "TouristRegistered",
      "type": "event"
    },
    {
      "anonymous": false,
      "inputs": [
        {
          "indexed": false,
          "internalType": "string",
          "name": "uniqueId",
          "type": "string"
        },
        {
          "indexed": true,
          "internalType": "address",
          "name": "authority",
          "type": "address"
        },
        {
          "indexed": false,
          "internalType": "uint256",
          "name": "timestamp",
          "type": "uint256"
        }
      ],
      "name": "TouristRejected",
      "type": "event"
    },
    {
      "anonymous": false,
      "inputs": [
        {
          "indexed": false,
          "internalType": "string",
          "name": "uniqueId",
          "type": "string"
        },
        {
          "indexed": true,
          "internalType": "address",
          "name": "authority",
          "type": "address"
        },
        {
          "indexed": false,
          "internalType": "uint256",
          "name": "verificationDate",
          "type": "uint256"
        },
        {
          "indexed": false,
          "internalType": "uint256",
          "name": "expirationDate",
          "type": "uint256"
        }
      ],
      "name": "TouristVerified",
      "type": "event"
    },
    {
      "inputs": [
        {
          "internalType": "address",
          "name": "",
          "type": "address"
        }
      ],
      "name": "addressToUniqueId",
      "outputs": [
        {
          "internalType": "string",
          "name": "",
          "type": "string"
        }
      ],
      "stateMutability": "view",
      "type": "function",
      "constant": true
    },
    {
      "inputs": [],
      "name": "admin",
      "outputs": [
        {
          "internalType": "address",
          "name": "",
          "type": "address"
        }
      ],
      "stateMutability": "view",
      "type": "function",
      "constant": true
    },
    {
      "inputs": [
        {
          "internalType": "address",
          "name": "",
          "type": "address"
        }
      ],
      "name": "authorities",
      "outputs": [
        {
          "internalType": "bool",
          "name": "",
          "type": "bool"
        }
      ],
      "stateMutability": "view",
      "type": "function",
      "constant": true
    },
    {
      "inputs": [],
      "name": "totalTourists",
      "outputs": [
        {
          "internalType": "uint256",
          "name": "",
          "type": "uint256"
        }
      ],
      "stateMutability": "view",
      "type": "function",
      "constant": true
    },
    {
      "inputs": [
        {
          "internalType": "string",
          "name": "",
          "type": "string"
        },
        {
          "internalType": "uint256",
          "name": "",
          "type": "uint256"
        }
      ],
      "name": "touristDocuments",
      "outputs": [
        {
          "internalType": "string",
          "name": "documentType",
          "type": "string"
        },
        {
          "internalType": "string",
          "name": "ipfsHash",
          "type": "string"
        },
        {
          "internalType": "uint256",
          "name": "uploadDate",
          "type": "uint256"
        },
        {
          "internalType": "bool",
          "name": "isVerified",
          "type": "bool"
        }
      ],
      "stateMutability": "view",
      "type": "function",
      "constant": true
    },
    {
      "inputs": [
        {
          "internalType": "string",
          "name": "",
          "type": "string"
        }
      ],
      "name": "tourists",
      "outputs": [
        {
          "internalType": "string",
          "name": "uniqueId",
          "type": "string"
        },
        {
          "internalType": "string",
          "name": "name",
          "type": "string"
        },
        {
          "internalType": "string",
          "name": "nationality",
          "type": "string"
        },
        {
          "internalType": "string",
          "name": "encryptedDataHash",
          "type": "string"
        },
        {
          "internalType": "string",
          "name": "qrCodeHash",
          "type": "string"
        },
        {
          "internalType": "bool",
          "name": "isVerified",
          "type": "bool"
        },
        {
          "internalType": "bool",
          "name": "isActive",
          "type": "bool"
        },
        {
          "internalType": "uint256",
          "name": "registrationDate",
          "type": "uint256"
        },
        {
          "internalType": "uint256",
          "name": "verificationDate",
          "type": "uint256"
        },
        {
          "internalType": "uint256",
          "name": "expirationDate",
          "type": "uint256"
        },
        {
          "internalType": "address",
          "name": "touristAddress",
          "type": "address"
        },
        {
          "internalType": "address",
          "name": "verifiedBy",
          "type": "address"
        }
      ],
      "stateMutability": "view",
      "type": "function",
      "constant": true
    },
    {
      "inputs": [
        {
          "internalType": "address",
          "name": "_authority",
          "type": "address"
        }
      ],
      "name": "addAuthority",
      "outputs": [],
      "stateMutability": "nonpayable",
      "type": "function"
    },
    {
      "inputs": [
        {
          "internalType": "address",
          "name": "_authority",
          "type": "address"
        }
      ],
      "name": "removeAuthority",
      "outputs": [],
      "stateMutability": "nonpayable",
      "type": "function"
    },
    {
      "inputs": [
        {
          "internalType": "string",
          "name": "_uniqueId",
          "type": "string"
        },
        {
          "internalType": "string",
          "name": "_name",
          "type": "string"
        },
        {
          "internalType": "string",
          "name": "_nationality",
          "type": "string"
        },
        {
          "internalType": "string",
          "name": "_encryptedDataHash",
          "type": "string"
        },
        {
          "internalType": "address",
          "name": "_touristAddress",
          "type": "address"
        }
      ],
      "name": "registerTourist",
      "outputs": [],
      "stateMutability": "nonpayable",
      "type": "function"
    },
    {
      "inputs": [
        {
          "internalType": "string",
          "name": "_uniqueId",
          "type": "string"
        },
        {
          "internalType": "string",
          "name": "_documentType",
          "type": "string"
        },
        {
          "internalType": "string",
          "name": "_ipfsHash",
          "type": "string"
        }
      ],
      "name": "uploadDocument",
      "outputs": [],
      "stateMutability": "nonpayable",
      "type": "function"
    },
    {
      "inputs": [
        {
          "internalType": "string",
          "name": "_uniqueId",
          "type": "string"
        },
        {
          "internalType": "string",
          "name": "_qrCodeHash",
          "type": "string"
        },
        {
          "internalType": "uint256",
          "name": "_validityDays",
          "type": "uint256"
        }
      ],
      "name": "verifyTourist",
      "outputs": [],
      "stateMutability": "nonpayable",
      "type": "function"
    },
    {
      "inputs": [
        {
          "internalType": "string",
          "name": "_uniqueId",
          "type": "string"
        }
      ],
      "name": "rejectTourist",
      "outputs": [],
      "stateMutability": "nonpayable",
      "type": "function"
    },
    {
      "inputs": [
        {
          "internalType": "string",
          "name": "_uniqueId",
          "type": "string"
        }
      ],
      "name": "checkExpiration",
      "outputs": [
        {
          "internalType": "bool",
          "name": "",
          "type": "bool"
        }
      ],
      "stateMutability": "nonpayable",
      "type": "function"
    },
    {
      "inputs": [
        {
          "internalType": "string",
          "name": "_uniqueId",
          "type": "string"
        }
      ],
      "name": "isValid",
      "outputs": [
        {
          "internalType": "bool",
          "name": "",
          "type": "bool"
        }
      ],
      "stateMutability": "view",
      "type": "function",
      "constant": true
    },
    {
      "inputs": [
        {
          "internalType": "string",
          "name": "_uniqueId",
          "type": "string"
        }
      ],
      "name": "getTouristInfo",
      "outputs": [
        {
          "internalType": "string",
          "name": "name",
          "type": "string"
        },
        {
          "internalType": "string",
          "name": "nationality",
          "type": "string"
        },
        {
          "internalType": "string",
          "name": "encryptedDataHash",
          "type": "string"
        },
        {
          "internalType": "string",
          "name": "qrCodeHash",
          "type": "string"
        },
        {
          "internalType": "bool",
          "name": "isVerified",
          "type": "bool"
        },
        {
          "internalType": "uint256",
          "name": "registrationDate",
          "type": "uint256"
        },
        {
          "internalType": "uint256",
          "name": "verificationDate",
          "type": "uint256"
        },
        {
          "internalType": "uint256",
          "name": "expirationDate",
          "type": "uint256"
        },
        {
          "internalType": "bool",
          "name": "isActive",
          "type": "bool"
        }
      ],
      "stateMutability": "view",
      "type": "function",
      "constant": true
    },
    {
      "inputs": [
        {
          "internalType": "string",
          "name": "_uniqueId",
          "type": "string"
        }
      ],
      "name": "getTouristDocuments",
      "outputs": [
        {
          "components": [
            {
              "internalType": "string",
              "name": "documentType",
              "type": "string"
            },
            {
              "internalType": "string",
              "name": "ipfsHash",
              "type": "string"
            },
            {
              "internalType": "uint256",
              "name": "uploadDate",
              "type": "uint256"
            },
            {
              "internalType": "bool",
              "name": "isVerified",
              "type": "bool"
            }
          ],
          "internalType": "struct TouristRegistry.Document[]",
          "name": "",
          "type": "tuple[]"
        }
      ],
      "stateMutability": "view",
      "type": "function",
      "constant": true
    }
  ],
  "bytecode": "0x608060405234801561001057600080fd5b5033600460006101000a81548173ffffffffffffffffffffffffffffffffffffffff021916908373ffffffffffffffffffffffffffffffffffffffff1602179055506001600360003373ffffffffffffffffffffffffffffffffffffffff1673ffffffffffffffffffffffffffffffffffffffff16815260200190815260200160002060006101000a81548160ff021916908315150217905550613529806100b96000396000f3fe608060405234801561001057600080fd5b50600436106101005760003560e01c80639412809411610097578063d544e01011610066578063d544e010146102e5578063de855c1a14610301578063f1dfaefb14610331578063f851a4401461036157610100565b8063941280941461024a57806397e3e9c41461027d5780639e987f95146102ad578063d0360419146102c957610100565b806327fef47d116100d357806327fef47d1461019657806349ac93a4146101ce578063667a7883146101fe57806391223d691461021a57610100565b80630bb04fc71461010557806311ac1db5146101235780632457a4451461015e57806326defa731461017a575b600080fd5b61010d61037f565b60405161011a9190612294565b60405180910390f35b61013d60048036038101906101389190612409565b610385565b6040516101559c9b9a9998979695949392919061252d565b60405180910390f35b61017860048036038101906101739190612636565b6106fd565b005b610194600480360381019061018f9190612721565b610a43565b005b6101b060048036038101906101ab9190612409565b610b2e565b6040516101c59998979695949392919061274e565b60405180910390f35b6101e860048036038101906101e39190612409565b610f92565b6040516101f5919061298b565b60405180910390f35b61021860048036038101906102139190612409565b611158565b005b610234600480360381019061022f9190612721565b61134e565b60405161024191906129ad565b60405180910390f35b610264600480360381019061025f91906129f4565b61136e565b6040516102749493929190612a50565b60405180910390f35b61029760048036038101906102929190612409565b6114ee565b6040516102a491906129ad565b60405180910390f35b6102c760048036038101906102c29190612aa3565b611671565b005b6102e360048036038101906102de9190612b4a565b6118ec565b005b6102ff60048036038101906102fa9190612721565b611c6b565b005b61031b60048036038101906103169190612721565b611d56565b6040516103289190612bd5565b60405180910390f35b61034b60048036038101906103469190612409565b611df6565b60405161035891906129ad565b60405180910390f35b610369612255565b6040516103769190612bf7565b60405180910390f35b60055481565b6000818051602081018201805184825260208301602085012081835280955050505050506000915090508060000180546103be90612c41565b80601f01602080910402602001604051908101604052809291908181526020018280546103ea90612c41565b80156104375780601f1061040c57610100808354040283529160200191610437565b820191906000526020600020905b81548152906001019060200180831161041a57829003601f168201915b50505050509080600101805461044c90612c41565b80601f016020809104026020016040519081016040528092919081815260200182805461047890612c41565b80156104c55780601f1061049a576101008083540402835291602001916104c5565b820191906000526020600020905b8154815290600101906020018083116104a857829003601f168201915b5050505050908060020180546104da90612c41565b80601f016020809104026020016040519081016040528092919081815260200182805461050690612c41565b80156105535780601f1061052857610100808354040283529160200191610553565b820191906000526020600020905b81548152906001019060200180831161053657829003601f168201915b50505050509080600301805461056890612c41565b80601f016020809104026020016040519081016040528092919081815260200182805461059490612c41565b80156105e15780601f106105b6576101008083540402835291602001916105e1565b820191906000526020600020905b8154815290600101906020018083116105c457829003601f168201915b5050505050908060040180546105f690612c41565b80601f016020809104026020016040519081016040528092919081815260200182805461062290612c41565b801561066f5780601f106106445761010080835404028352916020019161066f565b820191906000526020600020905b81548152906001019060200180831161065257829003601f168201915b5050505050908060050160009054906101000a900460ff16908060050160019054906101000a900460ff16908060060154908060070154908060080154908060090160009054906101000a900473ffffffffffffffffffffffffffffffffffffffff169080600a0160009054906101000a900473ffffffffffffffffffffffffffffffffffffffff1690508c565b6000808660405161070e9190612cae565b9081526020016040518091039020600001805461072a90612c41565b90501461076c576040517f08c379a000000000000000000000000000000000000000000000000000000000815260040161076390612d11565b60405180910390fd5b600060405180610180016040528087815260200186815260200185815260200184815260200160405180602001604052806000815250815260200160001515815260200160011515815260200142815260200160008152602001600081526020018373ffffffffffffffffffffffffffffffffffffffff168152602001600073ffffffffffffffffffffffffffffffffffffffff168152509050806000876040516108179190612cae565b9081526020016040518091039020600082015181600001908161083a9190612edd565b5060208201518160010190816108509190612edd565b5060408201518160020190816108669190612edd565b50606082015181600301908161087c9190612edd565b5060808201518160040190816108929190612edd565b5060a08201518160050160006101000a81548160ff02191690831515021790555060c08201518160050160016101000a81548160ff02191690831515021790555060e08201518160060155610100820151816007015561012082015181600801556101408201518160090160006101000a81548173ffffffffffffffffffffffffffffffffffffffff021916908373ffffffffffffffffffffffffffffffffffffffff16021790555061016082015181600a0160006101000a81548173ffffffffffffffffffffffffffffffffffffffff021916908373ffffffffffffffffffffffffffffffffffffffff16021790555090505085600260008473ffffffffffffffffffffffffffffffffffffffff1673ffffffffffffffffffffffffffffffffffffffff16815260200190815260200160002090816109d29190612edd565b50600560008154809291906109e690612fde565b91905055508173ffffffffffffffffffffffffffffffffffffffff167f076344b4caf67159b97d215d55f54e20fb5f2e14a3e405c07ca88e1f4595b65b8742604051610a33929190613026565b60405180910390a2505050505050565b600460009054906101000a900473ffffffffffffffffffffffffffffffffffffffff1673ffffffffffffffffffffffffffffffffffffffff163373ffffffffffffffffffffffffffffffffffffffff1614610ad3576040517f08c379a0000000000000000000000000000000000000000000000000000000008152600401610aca906130c8565b60405180910390fd5b6001600360008373ffffffffffffffffffffffffffffffffffffffff1673ffffffffffffffffffffffffffffffffffffffff16815260200190815260200160002060006101000a81548160ff02191690831515021790555050565b60608060608060008060008060008060008b604051610b4d9190612cae565b908152602001604051809103902060405180610180016040529081600082018054610b7790612c41565b80601f0160208091040260200160405190810160405280929190818152602001828054610ba390612c41565b8015610bf05780601f10610bc557610100808354040283529160200191610bf0565b820191906000526020600020905b815481529060010190602001808311610bd357829003601f168201915b50505050508152602001600182018054610c0990612c41565b80601f0160208091040260200160405190810160405280929190818152602001828054610c3590612c41565b8015610c825780601f10610c5757610100808354040283529160200191610c82565b820191906000526020600020905b815481529060010190602001808311610c6557829003601f168201915b50505050508152602001600282018054610c9b90612c41565b80601f0160208091040260200160405190810160405280929190818152602001828054610cc790612c41565b8015610d145780601f10610ce957610100808354040283529160200191610d14565b820191906000526020600020905b815481529060010190602001808311610cf757829003601f168201915b50505050508152602001600382018054610d2d90612c41565b80601f0160208091040260200160405190810160405280929190818152602001828054610d5990612c41565b8015610da65780601f10610d7b57610100808354040283529160200191610da6565b820191906000526020600020905b815481529060010190602001808311610d8957829003601f168201915b50505050508152602001600482018054610dbf90612c41565b80601f0160208091040260200160405190810160405280929190818152602001828054610deb90612c41565b8015610e385780601f10610e0d57610100808354040283529160200191610e38565b820191906000526020600020905b815481529060010190602001808311610e1b57829003601f168201915b505050505081526020016005820160009054906101000a900460ff161515151581526020016005820160019054906101000a900460ff161515151581526020016006820154815260200160078201548152602001600882015481526020016009820160009054906101000a900473ffffffffffffffffffffffffffffffffffffffff1673ffffffffffffffffffffffffffffffffffffffff1673ffffffffffffffffffffffffffffffffffffffff168152602001600a820160009054906101000a900473ffffffffffffffffffffffffffffffffffffffff1673ffffffffffffffffffffffffffffffffffffffff1673ffffffffffffffffffffffffffffffffffffffff1681525050905080602001518160400151826060015183608001518460a001518560e001518661010001518761012001518860c00151995099509950995099509950995099509950509193959799909294969850565b6060600182604051610fa49190612cae565b9081526020016040518091039020805480602002602001604051908101604052809291908181526020016000905b8282101561114d578382906000526020600020906004020160405180608001604052908160008201805461100590612c41565b80601f016020809104026020016040519081016040528092919081815260200182805461103190612c41565b801561107e5780601f106110535761010080835404028352916020019161107e565b820191906000526020600020905b81548152906001019060200180831161106157829003601f168201915b5050505050815260200160018201805461109790612c41565b80601f01602080910402602001604051908101604052809291908181526020018280546110c390612c41565b80156111105780601f106110e557610100808354040283529160200191611110565b820191906000526020600020905b8154815290600101906020018083116110f357829003601f168201915b50505050508152602001600282015481526020016003820160009054906101000a900460ff16151515158152505081526020019060010190610fd2565b505050509050919050565b600360003373ffffffffffffffffffffffffffffffffffffffff1673ffffffffffffffffffffffffffffffffffffffff16815260200190815260200160002060009054906101000a900460ff166111e4576040517f08c379a00000000000000000000000000000000000000000000000000000000081526004016111db9061315a565b60405180910390fd5b600080826040516111f59190612cae565b9081526020016040518091039020600001805461121190612c41565b905011611253576040517f08c379a000000000000000000000000000000000000000000000000000000000815260040161124a906131c6565b60405180910390fd5b6000816040516112639190612cae565b908152602001604051809103902060050160009054906101000a900460ff16156112c2576040517f08c379a00000000000000000000000000000000000000000000000000000000081526004016112b990613232565b60405180910390fd5b600080826040516112d39190612cae565b908152602001604051809103902060050160016101000a81548160ff0219169083151502179055503373ffffffffffffffffffffffffffffffffffffffff167f8a938a98d1d11ca87b7e4e62a7ecc1dc5eaa8f43ee6f16becb7dfd9aea9c87478242604051611343929190613026565b60405180910390a250565b60036020528060005260406000206000915054906101000a900460ff1681565b60018280516020810182018051848252602083016020850120818352809550505050505081815481106113a057600080fd5b9060005260206000209060040201600091509150508060000180546113c490612c41565b80601f01602080910402602001604051908101604052809291908181526020018280546113f090612c41565b801561143d5780601f106114125761010080835404028352916020019161143d565b820191906000526020600020905b81548152906001019060200180831161142057829003601f168201915b50505050509080600101805461145290612c41565b80601f016020809104026020016040519081016040528092919081815260200182805461147e90612c41565b80156114cb5780601f106114a0576101008083540402835291602001916114cb565b820191906000526020600020905b8154815290600101906020018083116114ae57829003601f168201915b5050505050908060020154908060030160009054906101000a900460ff16905084565b6000806000836040516115019190612cae565b9081526020016040518091039020600001805461151d90612c41565b90501161155f576040517f08c379a0000000000000000000000000000000000000000000000000000000008152600401611556906131c6565b60405180910390fd5b60008260405161156f9190612cae565b908152602001604051809103902060050160009054906101000a900460ff1680156115ba5750600080836040516115a69190612cae565b908152602001604051809103902060080154115b80156115e757506000826040516115d19190612cae565b9081526020016040518091039020600801544210155b1561166757600080836040516115fd9190612cae565b908152602001604051809103902060050160016101000a81548160ff0219169083151502179055507f3457e687aff0f6d8786ededf1028c24ff4692eaa24d6dad5e44eb5cdcad1676a8242604051611656929190613026565b60405180910390a16001905061166c565b600090505b919050565b600080846040516116829190612cae565b9081526020016040518091039020600001805461169e90612c41565b9050116116e0576040517f08c379a00000000000000000000000000000000000000000000000000000000081526004016116d7906131c6565b60405180910390fd5b3373ffffffffffffffffffffffffffffffffffffffff166000846040516117079190612cae565b908152602001604051809103902060090160009054906101000a900473ffffffffffffffffffffffffffffffffffffffff1673ffffffffffffffffffffffffffffffffffffffff1614806117a45750600360003373ffffffffffffffffffffffffffffffffffffffff1673ffffffffffffffffffffffffffffffffffffffff16815260200190815260200160002060009054906101000a900460ff165b6117e3576040517f08c379a00000000000000000000000000000000000000000000000000000000081526004016117da9061329e565b60405180910390fd5b6000604051806080016040528084815260200183815260200142815260200160001515815250905060018460405161181b9190612cae565b908152602001604051809103902081908060018154018082558091505060019003906000526020600020906004020160009091909190915060008201518160000190816118689190612edd565b50602082015181600101908161187e9190612edd565b506040820151816002015560608201518160030160006101000a81548160ff02191690831515021790555050507f358b939c722eac31c9390610595cb6c08986c49de6a497c6e2d4ece7be59cae88484846040516118de939291906132be565b60405180910390a150505050565b600360003373ffffffffffffffffffffffffffffffffffffffff1673ffffffffffffffffffffffffffffffffffffffff16815260200190815260200160002060009054906101000a900460ff16611978576040517f08c379a000000000000000000000000000000000000000000000000000000000815260040161196f9061315a565b60405180910390fd5b600080846040516119899190612cae565b908152602001604051809103902060000180546119a590612c41565b9050116119e7576040517f08c379a00000000000000000000000000000000000000000000000000000000081526004016119de906131c6565b60405180910390fd5b6000836040516119f79190612cae565b908152602001604051809103902060050160009054906101000a900460ff1615611a56576040517f08c379a0000000000000000000000000000000000000000000000000000000008152600401611a4d90613356565b60405180910390fd5b600081118015611a685750610e428111155b611aa7576040517f08c379a0000000000000000000000000000000000000000000000000000000008152600401611a9e906133e8565b60405180910390fd5b60006201518082611ab89190613408565b42611ac3919061344a565b90506001600085604051611ad79190612cae565b908152602001604051809103902060050160006101000a81548160ff02191690831515021790555082600085604051611b109190612cae565b90815260200160405180910390206004019081611b2d9190612edd565b5042600085604051611b3f9190612cae565b90815260200160405180910390206007018190555080600085604051611b659190612cae565b90815260200160405180910390206008018190555033600085604051611b8b9190612cae565b9081526020016040518091039020600a0160006101000a81548173ffffffffffffffffffffffffffffffffffffffff021916908373ffffffffffffffffffffffffffffffffffffffff1602179055503373ffffffffffffffffffffffffffffffffffffffff167f4e929a7d4c907e195049111106acda80123156f32d49f8f93edc52f1b8277a78854284604051611c249392919061347e565b60405180910390a27fdfc84579f8d71748fcf755ae9b4741f2b470b8e9082b76fa88506ed3605a3b968484604051611c5d9291906134bc565b60405180910390a150505050565b600460009054906101000a900473ffffffffffffffffffffffffffffffffffffffff1673ffffffffffffffffffffffffffffffffffffffff163373ffffffffffffffffffffffffffffffffffffffff1614611cfb576040517f08c379a0000000000000000000000000000000000000000000000000000000008152600401611cf2906130c8565b60405180910390fd5b6000600360008373ffffffffffffffffffffffffffffffffffffffff1673ffffffffffffffffffffffffffffffffffffffff16815260200190815260200160002060006101000a81548160ff02191690831515021790555050565b60026020528060005260406000206000915090508054611d7590612c41565b80601f0160208091040260200160405190810160405280929190818152602001828054611da190612c41565b8015611dee5780601f10611dc357610100808354040283529160200191611dee565b820191906000526020600020905b815481529060010190602001808311611dd157829003601f168201915b505050505081565b600080600083604051611e099190612cae565b908152602001604051809103902060405180610180016040529081600082018054611e3390612c41565b80601f0160208091040260200160405190810160405280929190818152602001828054611e5f90612c41565b8015611eac5780601f10611e8157610100808354040283529160200191611eac565b820191906000526020600020905b815481529060010190602001808311611e8f57829003601f168201915b50505050508152602001600182018054611ec590612c41565b80601f0160208091040260200160405190810160405280929190818152602001828054611ef190612c41565b8015611f3e5780601f10611f1357610100808354040283529160200191611f3e565b820191906000526020600020905b815481529060010190602001808311611f2157829003601f168201915b50505050508152602001600282018054611f5790612c41565b80601f0160208091040260200160405190810160405280929190818152602001828054611f8390612c41565b8015611fd05780601f10611fa557610100808354040283529160200191611fd0565b820191906000526020600020905b815481529060010190602001808311611fb357829003601f168201915b50505050508152602001600382018054611fe990612c41565b80601f016020809104026020016040519081016040528092919081815260200182805461201590612c41565b80156120625780601f1061203757610100808354040283529160200191612062565b820191906000526020600020905b81548152906001019060200180831161204557829003601f168201915b5050505050815260200160048201805461207b90612c41565b80601f01602080910402602001604051908101604052809291908181526020018280546120a790612c41565b80156120f45780601f106120c9576101008083540402835291602001916120f4565b820191906000526020600020905b8154815290600101906020018083116120d757829003601f168201915b505050505081526020016005820160009054906101000a900460ff161515151581526020016005820160019054906101000a900460ff161515151581526020016006820154815260200160078201548152602001600882015481526020016009820160009054906101000a900473ffffffffffffffffffffffffffffffffffffffff1673ffffffffffffffffffffffffffffffffffffffff1673ffffffffffffffffffffffffffffffffffffffff168152602001600a820160009054906101000a900473ffffffffffffffffffffffffffffffffffffffff1673ffffffffffffffffffffffffffffffffffffffff1673ffffffffffffffffffffffffffffffffffffffff168152505090508060a00151158061221257508060c00151155b15612221576000915050612250565b600081610120015111801561223b57508061012001514210155b1561224a576000915050612250565b60019150505b919050565b600460009054906101000a900473ffffffffffffffffffffffffffffffffffffffff1681565b6000819050919050565b61228e8161227b565b82525050565b60006020820190506122a96000830184612285565b92915050565b6000604051905090565b600080fd5b600080fd5b600080fd5b600080fd5b6000601f19601f8301169050919050565b7f4e487b7100000000000000000000000000000000000000000000000000000000600052604160045260246000fd5b612316826122cd565b810181811067ffffffffffffffff82111715612335576123346122de565b5b80604052505050565b60006123486122af565b9050612354828261230d565b919050565b600067ffffffffffffffff821115612374576123736122de565b5b61237d826122cd565b9050602081019050919050565b82818337600083830152505050565b60006123ac6123a784612359565b61233e565b9050828152602081018484840111156123c8576123c76122c8565b5b6123d384828561238a565b509392505050565b600082601f8301126123f0576123ef6122c3565b5b8135612400848260208601612399565b91505092915050565b60006020828403121561241f5761241e6122b9565b5b600082013567ffffffffffffffff81111561243d5761243c6122be565b5b612449848285016123db565b91505092915050565b600081519050919050565b600082825260208201905092915050565b60005b8381101561248c578082015181840152602081019050612471565b60008484015250505050565b60006124a382612452565b6124ad818561245d565b93506124bd81856020860161246e565b6124c6816122cd565b840191505092915050565b60008115159050919050565b6124e6816124d1565b82525050565b600073ffffffffffffffffffffffffffffffffffffffff82169050919050565b6000612517826124ec565b9050919050565b6125278161250c565b82525050565b6000610180820190508181036000830152612548818f612498565b9050818103602083015261255c818e612498565b90508181036040830152612570818d612498565b90508181036060830152612584818c612498565b90508181036080830152612598818b612498565b90506125a760a083018a6124dd565b6125b460c08301896124dd565b6125c160e0830188612285565b6125cf610100830187612285565b6125dd610120830186612285565b6125eb61014083018561251e565b6125f961016083018461251e565b9d9c50505050505050505050505050565b6126138161250c565b811461261e57600080fd5b50565b6000813590506126308161260a565b92915050565b600080600080600060a08688031215612652576126516122b9565b5b600086013567ffffffffffffffff8111156126705761266f6122be565b5b61267c888289016123db565b955050602086013567ffffffffffffffff81111561269d5761269c6122be565b5b6126a9888289016123db565b945050604086013567ffffffffffffffff8111156126ca576126c96122be565b5b6126d6888289016123db565b935050606086013567ffffffffffffffff8111156126f7576126f66122be565b5b612703888289016123db565b925050608061271488828901612621565b9150509295509295909350565b600060208284031215612737576127366122b9565b5b600061274584828501612621565b91505092915050565b6000610120820190508181036000830152612769818c612498565b9050818103602083015261277d818b612498565b90508181036040830152612791818a612498565b905081810360608301526127a58189612498565b90506127b460808301886124dd565b6127c160a0830187612285565b6127ce60c0830186612285565b6127db60e0830185612285565b6127e96101008301846124dd565b9a9950505050505050505050565b600081519050919050565b600082825260208201905092915050565b6000819050602082019050919050565b600082825260208201905092915050565b600061283f82612452565b6128498185612823565b935061285981856020860161246e565b612862816122cd565b840191505092915050565b6128768161227b565b82525050565b612885816124d1565b82525050565b600060808301600083015184820360008601526128a88282612834565b915050602083015184820360208601526128c28282612834565b91505060408301516128d7604086018261286d565b5060608301516128ea606086018261287c565b508091505092915050565b6000612901838361288b565b905092915050565b6000602082019050919050565b6000612921826127f7565b61292b8185612802565b93508360208202850161293d85612813565b8060005b85811015612979578484038952815161295a85826128f5565b945061296583612909565b925060208a01995050600181019050612941565b50829750879550505050505092915050565b600060208201905081810360008301526129a58184612916565b905092915050565b60006020820190506129c260008301846124dd565b92915050565b6129d18161227b565b81146129dc57600080fd5b50565b6000813590506129ee816129c8565b92915050565b60008060408385031215612a0b57612a0a6122b9565b5b600083013567ffffffffffffffff811115612a2957612a286122be565b5b612a35858286016123db565b9250506020612a46858286016129df565b9150509250929050565b60006080820190508181036000830152612a6a8187612498565b90508181036020830152612a7e8186612498565b9050612a8d6040830185612285565b612a9a60608301846124dd565b95945050505050565b600080600060608486031215612abc57612abb6122b9565b5b600084013567ffffffffffffffff811115612ada57612ad96122be565b5b612ae6868287016123db565b935050602084013567ffffffffffffffff811115612b0757612b066122be565b5b612b13868287016123db565b925050604084013567ffffffffffffffff811115612b3457612b336122be565b5b612b40868287016123db565b9150509250925092565b600080600060608486031215612b6357612b626122b9565b5b600084013567ffffffffffffffff811115612b8157612b806122be565b5b612b8d868287016123db565b935050602084013567ffffffffffffffff811115612bae57612bad6122be565b5b612bba868287016123db565b9250506040612bcb868287016129df565b9150509250925092565b60006020820190508181036000830152612bef8184612498565b905092915050565b6000602082019050612c0c600083018461251e565b92915050565b7f4e487b7100000000000000000000000000000000000000000000000000000000600052602260045260246000fd5b60006002820490506001821680612c5957607f821691505b602082108103612c6c57612c6b612c12565b5b50919050565b600081905092915050565b6000612c8882612452565b612c928185612c72565b9350612ca281856020860161246e565b80840191505092915050565b6000612cba8284612c7d565b915081905092915050565b7f546f757269737420616c72656164792072656769737465726564000000000000600082015250565b6000612cfb601a8361245d565b9150612d0682612cc5565b602082019050919050565b60006020820190508181036000830152612d2a81612cee565b9050919050565b60008190508160005260206000209050919050565b60006020601f8301049050919050565b600082821b905092915050565b600060088302612d937fffffffffffffffffffffffffffffffffffffffffffffffffffffffffffffffff82612d56565b612d9d8683612d56565b95508019841693508086168417925050509392505050565b6000819050919050565b6000612dda612dd5612dd08461227b565b612db5565b61227b565b9050919050565b6000819050919050565b612df483612dbf565b612e08612e0082612de1565b848454612d63565b825550505050565b600090565b612e1d612e10565b612e28818484612deb565b505050565b5b81811015612e4c57612e41600082612e15565b600181019050612e2e565b5050565b601f821115612e9157612e6281612d31565b612e6b84612d46565b81016020851015612e7a578190505b612e8e612e8685612d46565b830182612e2d565b50505b505050565b600082821c905092915050565b6000612eb460001984600802612e96565b1980831691505092915050565b6000612ecd8383612ea3565b9150826002028217905092915050565b612ee682612452565b67ffffffffffffffff811115612eff57612efe6122de565b5b612f098254612c41565b612f14828285612e50565b600060209050601f831160018114612f475760008415612f35578287015190505b612f3f8582612ec1565b865550612fa7565b601f198416612f5586612d31565b60005b82811015612f7d57848901518255600182019150602085019450602081019050612f58565b86831015612f9a5784890151612f96601f891682612ea3565b8355505b6001600288020188555050505b505050505050565b7f4e487b7100000000000000000000000000000000000000000000000000000000600052601160045260246000fd5b6000612fe98261227b565b91507fffffffffffffffffffffffffffffffffffffffffffffffffffffffffffffffff820361301b5761301a612faf565b5b600182019050919050565b600060408201905081810360008301526130408185612498565b905061304f6020830184612285565b9392505050565b7f4f6e6c792061646d696e2063616e20706572666f726d2074686973206163746960008201527f6f6e000000000000000000000000000000000000000000000000000000000000602082015250565b60006130b260228361245d565b91506130bd82613056565b604082019050919050565b600060208201905081810360008301526130e1816130a5565b9050919050565b7f4f6e6c7920617574686f72697a656420617574686f7269746965732063616e2060008201527f706572666f726d207468697320616374696f6e00000000000000000000000000602082015250565b600061314460338361245d565b915061314f826130e8565b604082019050919050565b6000602082019050818103600083015261317381613137565b9050919050565b7f546f7572697374206e6f74207265676973746572656400000000000000000000600082015250565b60006131b060168361245d565b91506131bb8261317a565b602082019050919050565b600060208201905081810360008301526131df816131a3565b9050919050565b7f43616e6e6f742072656a65637420766572696669656420746f75726973740000600082015250565b600061321c601e8361245d565b9150613227826131e6565b602082019050919050565b6000602082019050818103600083015261324b8161320f565b9050919050565b7f556e617574686f72697a65640000000000000000000000000000000000000000600082015250565b6000613288600c8361245d565b915061329382613252565b602082019050919050565b600060208201905081810360008301526132b78161327b565b9050919050565b600060608201905081810360008301526132d88186612498565b905081810360208301526132ec8185612498565b905081810360408301526133008184612498565b9050949350505050565b7f546f757269737420616c72656164792076657269666965640000000000000000600082015250565b600061334060188361245d565b915061334b8261330a565b602082019050919050565b6000602082019050818103600083015261336f81613333565b9050919050565b7f56616c6964697479206d757374206265206265747765656e203120616e64203360008201527f3635302064617973000000000000000000000000000000000000000000000000602082015250565b60006133d260288361245d565b91506133dd82613376565b604082019050919050565b60006020820190508181036000830152613401816133c5565b9050919050565b60006134138261227b565b915061341e8361227b565b925082820261342c8161227b565b9150828204841483151761344357613442612faf565b5b5092915050565b60006134558261227b565b91506134608361227b565b925082820190508082111561347857613477612faf565b5b92915050565b600060608201905081810360008301526134988186612498565b90506134a76020830185612285565b6134b46040830184612285565b949350505050565b600060408201905081810360008301526134d68185612498565b905081810360208301526134ea8184612498565b9050939250505056fea2646970667358221220c99916f971cd5e354ee3c157e699eafc5ca1071582edc9836e1a51c3522092ed64736f6c63430008130033",
  "immutableReferences": {},
  "source": "// SPDX-License-Identifier: MIT\r\npragma solidity ^0.8.0;\r\n\r\ncontract TouristRegistry {\r\n    \r\n    struct Tourist {\r\n        string uniqueId;\r\n        string name;\r\n        string nationality;\r\n        string encryptedDataHash;\r\n        string qrCodeHash;\r\n        bool isVerified;\r\n        bool isActive;\r\n        uint256 registrationDate;\r\n        uint256 verificationDate;\r\n        uint256 expirationDate;\r\n        address touristAddress;\r\n        address verifiedBy;\r\n    }\r\n    \r\n    struct Document {\r\n        string documentType;\r\n        string ipfsHash;\r\n        uint256 uploadDate;\r\n        bool isVerified;\r\n    }\r\n    \r\n    mapping(string => Tourist) public tourists;\r\n    mapping(string => Document[]) public touristDocuments;\r\n    mapping(address => string) public addressToUniqueId;\r\n    mapping(address => bool) public authorities;\r\n    \r\n    address public admin;\r\n    uint256 public totalTourists;\r\n    \r\n    event TouristRegistered(string uniqueId, address indexed touristAddress, uint256 timestamp);\r\n    event DocumentUploaded(string uniqueId, string documentType, string ipfsHash);\r\n    event TouristVerified(string uniqueId, address indexed authority, uint256 verificationDate, uint256 expirationDate);\r\n    event TouristRejected(string uniqueId, address indexed authority, uint256 timestamp);\r\n    event QRCodeGenerated(string uniqueId, string qrCodeHash);\r\n    event TouristExpired(string uniqueId, uint256 timestamp);\r\n    \r\n    modifier onlyAdmin() {\r\n        require(msg.sender == admin, \"Only admin can perform this action\");\r\n        _;\r\n    }\r\n    \r\n    modifier onlyAuthority() {\r\n        require(authorities[msg.sender], \"Only authorized authorities can perform this action\");\r\n        _;\r\n    }\r\n    \r\n    constructor() {\r\n        admin = msg.sender;\r\n        authorities[msg.sender] = true;\r\n    }\r\n    \r\n    function addAuthority(address _authority) public onlyAdmin {\r\n        authorities[_authority] = true;\r\n    }\r\n    \r\n    function removeAuthority(address _authority) public onlyAdmin {\r\n        authorities[_authority] = false;\r\n    }\r\n    \r\n    function registerTourist(\r\n        string memory _uniqueId,\r\n        string memory _name,\r\n        string memory _nationality,\r\n        string memory _encryptedDataHash,\r\n        address _touristAddress\r\n    ) public {\r\n        require(bytes(tourists[_uniqueId].uniqueId).length == 0, \"Tourist already registered\");\r\n        \r\n        Tourist memory newTourist = Tourist({\r\n            uniqueId: _uniqueId,\r\n            name: _name,\r\n            nationality: _nationality,\r\n            encryptedDataHash: _encryptedDataHash,\r\n            qrCodeHash: \"\",\r\n            isVerified: false,\r\n            isActive: true,\r\n            registrationDate: block.timestamp,\r\n            verificationDate: 0,\r\n            expirationDate: 0,\r\n            touristAddress: _touristAddress,\r\n            verifiedBy: address(0)\r\n        });\r\n        \r\n        tourists[_uniqueId] = newTourist;\r\n        addressToUniqueId[_touristAddress] = _uniqueId;\r\n        totalTourists++;\r\n        \r\n        emit TouristRegistered(_uniqueId, _touristAddress, block.timestamp);\r\n    }\r\n    \r\n    function uploadDocument(\r\n        string memory _uniqueId,\r\n        string memory _documentType,\r\n        string memory _ipfsHash\r\n    ) public {\r\n        require(bytes(tourists[_uniqueId].uniqueId).length > 0, \"Tourist not registered\");\r\n        require(\r\n            tourists[_uniqueId].touristAddress == msg.sender || authorities[msg.sender],\r\n            \"Unauthorized\"\r\n        );\r\n        \r\n        Document memory newDocument = Document({\r\n            documentType: _documentType,\r\n            ipfsHash: _ipfsHash,\r\n            uploadDate: block.timestamp,\r\n            isVerified: false\r\n        });\r\n        \r\n        touristDocuments[_uniqueId].push(newDocument);\r\n        \r\n        emit DocumentUploaded(_uniqueId, _documentType, _ipfsHash);\r\n    }\r\n    \r\n    function verifyTourist(\r\n        string memory _uniqueId, \r\n        string memory _qrCodeHash,\r\n        uint256 _validityDays\r\n    ) \r\n        public \r\n        onlyAuthority \r\n    {\r\n        require(bytes(tourists[_uniqueId].uniqueId).length > 0, \"Tourist not registered\");\r\n        require(!tourists[_uniqueId].isVerified, \"Tourist already verified\");\r\n        require(_validityDays > 0 && _validityDays <= 3650, \"Validity must be between 1 and 3650 days\"); // Max 10 years\r\n        \r\n        uint256 expirationDate = block.timestamp + (_validityDays * 1 days);\r\n        \r\n        tourists[_uniqueId].isVerified = true;\r\n        tourists[_uniqueId].qrCodeHash = _qrCodeHash;\r\n        tourists[_uniqueId].verificationDate = block.timestamp;\r\n        tourists[_uniqueId].expirationDate = expirationDate;\r\n        tourists[_uniqueId].verifiedBy = msg.sender;\r\n        \r\n        emit TouristVerified(_uniqueId, msg.sender, block.timestamp, expirationDate);\r\n        emit QRCodeGenerated(_uniqueId, _qrCodeHash);\r\n    }\r\n    \r\n    function rejectTourist(string memory _uniqueId) \r\n        public \r\n        onlyAuthority \r\n    {\r\n        require(bytes(tourists[_uniqueId].uniqueId).length > 0, \"Tourist not registered\");\r\n        require(!tourists[_uniqueId].isVerified, \"Cannot reject verified tourist\");\r\n        \r\n        // Deactivate the tourist\r\n        tourists[_uniqueId].isActive = false;\r\n        \r\n        emit TouristRejected(_uniqueId, msg.sender, block.timestamp);\r\n    }\r\n    \r\n    function checkExpiration(string memory _uniqueId) public returns (bool) {\r\n        require(bytes(tourists[_uniqueId].uniqueId).length > 0, \"Tourist not registered\");\r\n        \r\n        if (tourists[_uniqueId].isVerified && \r\n            tourists[_uniqueId].expirationDate > 0 && \r\n            block.timestamp >= tourists[_uniqueId].expirationDate) {\r\n            \r\n            tourists[_uniqueId].isActive = false;\r\n            emit TouristExpired(_uniqueId, block.timestamp);\r\n            return true; // Expired\r\n        }\r\n        \r\n        return false; // Not expired\r\n    }\r\n    \r\n    function isValid(string memory _uniqueId) public view returns (bool) {\r\n        Tourist memory t = tourists[_uniqueId];\r\n        \r\n        if (!t.isVerified || !t.isActive) {\r\n            return false;\r\n        }\r\n        \r\n        if (t.expirationDate > 0 && block.timestamp >= t.expirationDate) {\r\n            return false; // Expired\r\n        }\r\n        \r\n        return true;\r\n    }\r\n    \r\n    function getTouristInfo(string memory _uniqueId) \r\n        public \r\n        view \r\n        returns (\r\n            string memory name,\r\n            string memory nationality,\r\n            string memory encryptedDataHash,\r\n            string memory qrCodeHash,\r\n            bool isVerified,\r\n            uint256 registrationDate,\r\n            uint256 verificationDate,\r\n            uint256 expirationDate,\r\n            bool isActive\r\n        ) \r\n    {\r\n        Tourist memory t = tourists[_uniqueId];\r\n        return (\r\n            t.name,\r\n            t.nationality,\r\n            t.encryptedDataHash,\r\n            t.qrCodeHash,\r\n            t.isVerified,\r\n            t.registrationDate,\r\n            t.verificationDate,\r\n            t.expirationDate,\r\n            t.isActive\r\n        );\r\n    }\r\n    \r\n    function getTouristDocuments(string memory _uniqueId) \r\n        public \r\n        view \r\n        returns (Document[] memory) \r\n    {\r\n        return touristDocuments[_uniqueId];\r\n    }\r\n}",
  "sourcePath": "C:\\Users\\dk-32\\Videos\\blockchain\\contracts\\TouristRegistry.sol",
  "compiler": {
    "name": "solc",
    "version": "0.8.19+commit.7dd6d404.Emscripten.clang"
  },
  "schemaVersion": "3.4.16",
  "updatedAt": "2025-10-31T02:39:54.286Z",
  "networkType": "ethereum",
  "devdoc": {
    "kind": "dev",
    "methods": {},
    "version": 1
  },
  "userdoc": {
    "kind": "user",
    "methods": {},
    "version": 1
  }
}